{
  "contractName": "owned",
  "abi": [
    {
      "constant": true,
      "inputs": [],
      "name": "owner",
      "outputs": [
        {
          "name": "",
          "type": "address"
        }
      ],
      "payable": false,
      "stateMutability": "view",
      "type": "function"
    },
    {
      "constant": false,
      "inputs": [
        {
          "name": "newOwner",
          "type": "address"
        }
      ],
      "name": "transferOwnership",
      "outputs": [],
      "payable": false,
      "stateMutability": "nonpayable",
      "type": "function"
    },
    {
      "inputs": [],
      "payable": false,
      "stateMutability": "nonpayable",
      "type": "constructor"
    }
  ],
  "bytecode": "0x6060604052341561000f57600080fd5b336000806101000a81548173ffffffffffffffffffffffffffffffffffffffff021916908373ffffffffffffffffffffffffffffffffffffffff1602179055506101ce8061005e6000396000f30060606040526004361061004c576000357c0100000000000000000000000000000000000000000000000000000000900463ffffffff1680638da5cb5b14610051578063f2fde38b146100a6575b600080fd5b341561005c57600080fd5b6100646100df565b604051808273ffffffffffffffffffffffffffffffffffffffff1673ffffffffffffffffffffffffffffffffffffffff16815260200191505060405180910390f35b34156100b157600080fd5b6100dd600480803573ffffffffffffffffffffffffffffffffffffffff16906020019091905050610104565b005b6000809054906101000a900473ffffffffffffffffffffffffffffffffffffffff1681565b3373ffffffffffffffffffffffffffffffffffffffff166000809054906101000a900473ffffffffffffffffffffffffffffffffffffffff1673ffffffffffffffffffffffffffffffffffffffff1614151561015f57600080fd5b806000806101000a81548173ffffffffffffffffffffffffffffffffffffffff021916908373ffffffffffffffffffffffffffffffffffffffff160217905550505600a165627a7a72305820b6d7c60e799434320a7454be7f46bd363bd209ab3fbc0c14d9aee71280230d020029",
  "source": "pragma solidity ^0.4.16;\n\nimport \"./Token.sol\";\n\ncontract owned {\n    address public owner;\n\n    function owned () public {\n        owner = msg.sender;\n    }\n\n    modifier ownerOnly {\n        require (owner == msg.sender);\n        _;\n    }\n\n    function transferOwnership(address newOwner) ownerOnly public {\n        owner = newOwner;\n    }\n}\n\ncontract TstToken is owned, TokenERC20 {\n\n    uint256 public buyPrice;\n    event Minted(uint amount);\n\n    /* Initializes contract with initial supply tokens to the creator of the contract */\n    function TstToken(\n        uint256 initialSupply,\n        string tokenName,\n        string tokenSymbol\n    ) TokenERC20(initialSupply, tokenName, tokenSymbol) public {}\n\n    \n    function buy() payable public returns (uint amount) {\n        amount = msg.value / buyPrice;                    // calculates the amount\n        require(balanceOf[this] >= amount);               // checks if it has enough to sell\n        balanceOf[msg.sender] += amount;                  // adds the amount to buyer's balance\n        Transfer(this, msg.sender, amount);               // execute an event reflecting the change\n        Minted(amount);\n        return amount;                                    // ends function and returns\n    }\n\n    /// @notice Allow users to buy tokens for `newBuyPrice` eth\n    /// @param newBuyPrice Price users can buy from the contract\n    function setPrice(uint256 newBuyPrice) ownerOnly public {\n        buyPrice = newBuyPrice;\n    }\n}",
  "sourcePath": "/home/friedger/_repos/github/friedger/walleth/token/contracts/TstToken.sol",
  "compiler": {
    "name": "solc",
    "version": "0.4.18+commit.9cf6e910.Emscripten.clang"
  },
  "schemaVersion": "1.0.1",
  "updatedAt": "2017-11-16T14:26:57.048Z"
}